:100000006F009013000000003E0600004006000054
:1000100000000000000000000000000000000000E0
:1000200000000000000000000000000000000000D0
:100030003609000000000000360900000000000042
:1000400036090000360900003609000036090000B4
:1000500036090000360900003609000036090000A4
:100060003609000036090000360900003609000094
:100070003609000036090000360900003609000084
:100080003609000036090000360900003609000074
:100090003609000036090000A80600000000000034
:0C00A000730050107D157DFD8280000073
:1000AC00511126C022C206C4828282441244A2404C
:1000BC00310182802A86014593F6150091C2329552
:1000CC0085810606F5F9828000000000634E05026A
:1000DC0063C305042E86AA857D5515C285466378B3
:1000EC00B6006356C00006068606E36CB6FE0145F4
:1000FC0063E4C500918D558D85820582F5FA828069
:10010C008682C93F2E8582823305A04063D70500C5
:10011C00B305B040C1B7B305B0408682653F330527
:10012C00A0408282868263C70500634905005D3763
:10013C002E858282B305B040E35B05FE3305A040FB
:10014C00513F3305B04082820000EFF27FF5111170
:10015C008545454502C002C202C402C602C802CA95
:10016C0002CCEF003039854537052000EF00703A9E
:10017C0099477C80F1473EC48A858D4737150140ED
:10018C003EC2EF00B005E1679387076A3EC6B7072A
:10019C000040375400403EC893070040FC836C007D
:1001AC00916713050440FC84EF00100B8545130583
:1001BC000440EF0090187101CDBDEFF27FEE71118C
:1001CC00B75700402A84AE8432C0138707403A8563
:1001DC00B7050200EF00701EB757004013870740A9
:1001EC007DF585453A85EF00D016B70703008507E6
:1001FC0037570040BE8513050740EF00B01AB7070C
:10020C00030037570040850765D593151400014648
:10021C0093F5E50F1305074037040700EF0070173F
:10022C0013042408B757004013850740A285EF003C
:10023C007017B75700407DD5A68513850740370446
:10024C000700EF00501413044408B7540040A28573
:10025C0013850440EF0010156DD9824513850440B9
:10026C0037040700EF00301213044408B754004061
:10027C00A28513850440EF00F0126DD985451385D6
:10028C000440EF00B00E11010DB5EFF27FE1B7574E
:10029C0000402A84AE84138707403A85B7050200D4
:1002AC00EF00B011B7570040138707407DF5854527
:1002BC003A85EF00100AB70703008507375700404F
:1002CC00BE8513050740EF00F00DB7070300375745
:1002DC000040850765D506041374F40F0146A2850A
:1002EC0013050740EF00F00AB707070093872708AC
:1002FC0037570040BE8513050740EF00B00AB7071B
:10030C00070037570040938727087DD1A685130532
:10031C000740B7040700EF00100793844408B75751
:10032C00004013850740A685EF00D007B757004063
:10033C007DD5854513850740B7040300EF00700198
:10034C008504B757004013850740A685EF0090053C
:10035C00B75700407DD5A285054613850740370465
:10036C000300EF001003090437550040A285130564
:10037C000540EF0030036DD937040010130404045A
:10038C00B7540040A28513850440EF0010036DD9CB
:10039C0013850440EF00607F220513140501B70795
:1003AC000010418093870704B7540040BE85138525
:1003BC000440EF009000B7070010938707046DD539
:1003CC0013850440EF00607C498C854513850440FF
:1003DC0042044180EF0080792285C1B9EFF25FCCF5
:1003EC009305A00A130570074D35B7070020239419
:1003FC00A7049305C00A13057007413DB7070020F9
:10040C002395A7049305E00A13057007BD3DB707B4
:10041C0000202396A7049305000B13057007B53530
:10042C00B70700202397A7049305200B130570072B
:10043C00A93D2394A1809305400B13057007B1359A
:10044C002395A1809305600B130570073D3D239602
:10045C00A1809305800B13057007053D2397A180A0
:10046C009305A00B130570070D35239AA1809305F6
:10047C00C00B13057007113D239BA1809305E00B66
:10048C00130570071935239CA18005B1EFF25FC1EC
:10049C001306E0029305400F13057007393B154511
:1004AC00EF0050259305600F13057007F93B83D7B8
:1004BC00A18083D581801D8DF53E1354F5400395A5
:1004CC006181839581812E05A2950931229523A8FE
:1004DC00A18021051185D1BEEFF29FBC41111306FD
:1004EC00400F9305400F13057007C1396945EF00A4
:1004FC0070209305600F13057007413B2AC69305C6
:10050C00800F13057007513303A601817D77130704
:10051C0007063297BA852AC43A853AC0613E02472B
:10052C00370600201354C5400315C604BA853AC2D9
:10053C0051369354D5400395C180A285A53E418583
:10054C0037060020AA948355E60489048984216522
:10055C0026958D36B247A2469354F500A20733E593
:10056C00D700935755400395E180A2853EC099363C
:10057C0012471354B540BA85370700200315A7045A
:10058C00153E2D85370700202A94031587048247D2
:10059C0089650A052A940604338487409385A586C9
:1005AC002285093E634305048D659385450D22859F
:1005BC001136A68505362A84935584402E85DD3C5C
:1005CC0085649385E4BDFD34F9752AC09385353473
:1005DC002285CD34824741859384F4ECC1873E95C6
:1005EC002695118522954101C9B4A685E5341314CD
:1005FC001500D9B7EFF2DFAA7111493D2A84E93D04
:10060C00AA84A9452285393E2AC0A94522857D3C6C
:10061C000246AA85371500001305055EEF00B0747D
:10062C0037150000A6851305855FEF00D073110107
:10063C00ADBC01A0B707EFBE37E700E09387070812
:10064C003CC701A0EFF2DFA531118545054502C479
:10065C0002C62318010002C002C2652DB167938740
:10066C00F7B73EC489679387F7702C0037050040B5
:10067C003EC67D2D0546854537050040292F93073D
:10068C0060027C8085475C810A8585473EC2B92B18
:10069C00854537050040E525510101BC85453705E9
:1006AC000040192719C9370500408545112F37150A
:1006BC0000001305C560EF00306D73002030EFF2C1
:1006CC003F9EF52AEF00C07F716513050520EF00F2
:1006DC001006B707002083A5C701371500001305C6
:1006EC004562EF0050683715000013054563EF00B5
:1006FC00B069893FB7140000893CCD31E53D1385C5
:10070C00C465EF00706837F400E0832704D1130749
:10071C00800893E707012328F4D073300730832631
:10072C0004D1832704D14D4593F6060293E7870243
:10073C002328F4D0832704D193F7F7FDD58F2328F2
:10074C00F4D0832704D193E787002328F4D09700B3
:10075C000020E780608A832704D14D4593E787000A
:10076C002328F4D097000020E78000891307800825
:10077C00732007303715000013054567EF00D06074
:10078C001305803EEF00007795BFEFF27F91371491
:10079C0002401C403707FFF8611193E717001CC09B
:1007AC005C404145F98F5CC01C403707F7FE7D1754
:1007BC00F98F1CC01C403707FCFF7D17F98F1CC03C
:1007CC005C4041777D17F98F5CC0B7079F001CC454
:1007DC0085291C4C3706020093E707021CCCB7177F
:1007EC00014003A70740938607401377F7F023A037
:1007FC00E74003A707401367070823A0E740894792
:10080C009CCA02C002C21C4C37070140A16693E788
:10081C0017001CCC5C43D58F5CC31C404167B716DA
:10082C000240D98F1CC009679C42F18F3EC282479F
:10083C0085073EC0924781E78247E397E7FEB717EB
:10084C0002409C431397E7006359070685473EC255
:10085C00124785476310F706B72702409843C176C5
:10086C00FD16719B98C398431367170098C3B7176D
:10087C000240D843D8C3D843758FD8C3D843C16678
:10088C00558FD8C39843B7060001558F98C398432A
:10089C0093166700E3DD06FED843B7160240719B42
:1008AC00D8C3D84313672700D8C32147DC42B18B88
:1008BC00E39EE7FE21016FF04FFF02C251BFEFF242
:1008CC002FFE371702405C43370400209146B18B52
:1008DC001304C4016385D700A1466382D704B737DC
:1008EC006E01938707601CC0B7160240DC420840BB
:1008FC00918313F7F700B70700209387C700BA97C7
:10090C008C23DC4293F5F50F93F707083357B500AA
:10091C0081E7EFF02FFC2A8718C06FF00FF95C43CA
:10092C00B777DC02938707C07DBF01A09701002039
:10093C00938101F1138181FB1305000A97F5FF1FC9
:10094C009385856B17F6FF1F1306C66B63FAC500FC
:10095C008322050023A0550011059105E3EAC5FE8D
:10096C00171500001305C5D197F5FF1F93858569F1
:10097C0017F6FF1F1306C66C63FAC5008322050029
:10098C0023A0550011059105E3EAC5FE17F5FF1FDD
:10099C001305056B938541826377B5002320050011
:1009AC001105E36DB5FEB7220000938202887390A7
:1009BC0002308D427390428097F2FFFF9382C263A4
:1009CC0093E2320073905230EFF03FDC970200005C
:1009DC00938222CF7390123473002030944593F796
:1009EC00060193F2F60081C7DC41B3E2F20083D337
:1009FC00050093F7F30FA5C303230500611122C271
:100A0C0026C08147130480029304800405473316E3
:100A1C00F70033F7C3006312E602939527003D47B6
:100A2C003317B7001347F7FF33736700B395B20062
:100A3C0033E36500639D860050C985072147E39722
:100A4C00E7FC124423206500824421018280E39656
:100A5C0096FE10C9DDB78280EFF28FE411114621AA
:100A6C002A8428002EC0F522C246C204C18093F409
:100A7C0004FCB7450F00938505243685C20436C2A5
:100A8C00C180EFF02FE5458D420541814AA01E2023
:100A9C009246C207C183F99BC207C1831EA082473D
:100AAC009043E1679387076A9315160063E6C704C2
:100ABC003685EFF02FE2AA87420541819146637398
:100ACC00D50091471395070141814AAC1E2002477E
:100ADC0093E717001EA01E2056233227C207C1839E
:100AEC00D18E93F757BFD58F1EA016275E27D58FB3
:100AFC001EA471016FF06FDB8247EA23B167FD170B
:100B0C006310F502B2953685EFF0CFDC42054181DA
:100B1C009317450199E313651500A1675D8D75B7B2
:100B2C00B387C5008E07B385C7003685EFF08FDA23
:100B3C004205418191675D8DE1BF1E2189C593E717
:100B4C0017001EA18280C207C183F99BC207C18313
:100B5C00CDBF1E2189C593E707101EA18280C20755
:100B6C00C18393F7F7EFC207C183C5BF1E2189C5A7
:100B7C0093E707201EA18280C207C18393F7F7DF9A
:100B8C00C207C183C5BF0EA982800A291375F50F50
:100B9C00828093F7E50F19C293E71500C207C18352
:100BAC001EA982805E290A2D42055D8D6D8D220560
:100BBC0021810D8D133515008280611102C002C296
:100BCC0093D7C5012AC23EC08247A205A18199CB09
:100BDC009247D1073EC29247884321016D8D333530
:100BEC00A00082809247C181E107EDB783A6C18145
:100BFC00854718216390F6021C31639CD7023C2177
:100C0C009A0793E707F8B7E600E093F7F70FBA9661
:100C1C002380F6408546935757003397E60054419E
:100C2C0089CE938707048A07B7E600E0B69798C386
:100C3C008280EDF33C219A07F9B793870706E5B755
:100C4C00371702401C430E0593F777F05D8D08C3F0
:100C5C008280EFF2EFC4371702405C4391462A843E
:100C6C00B18B6385D700A1466380D708B7376E0177
:100C7C00938707601CC0B7160240DC42918313F7C0
:100C8C00F700B707002093874703BA978C23DC4201
:100C9C00184093F5F50F93F707083355B70081E724
:100CAC003A85EFF02FC348C008C448C4B7170240B8
:100CBC00DC438D46AD83FD8B13D737008A07F18B50
:100CCC00D98F13F6370113F7370063F4C600138777
:100CDC0047FFB707002093870702BA978C23EFF0E2
:100CEC006FBF08C86FF06FBC5C43B777DC029387AB
:100CFC0007C049B799C5371702401C4F5D8D08CF07
:100D0C008280B7170240984F1345F5FF798D88CF35
:100D1C00828099C5371702405C4F5D8D48CF828029
:100D2C00B7170240D84F1345F5FF798DC8CF828095
:100D3C001E2137370140130707C0C207C183630662
:100D4C00E500370700406316E500BA2193F7F7F882
:100D5C00D98FFA2193F7F7CFC207C183D98F1EA180
:100D6C00DE215EB59E211EB5B7370140938707C0C3
:100D7C006314F5009C251EB985475EA982801E214F
:100D8C0089C593E717001EA18280C207C183F99B16
:100D9C00C207C183CDBF5E2501C6DD8D4EA5828005
:100DAC0093C5F5FFFD8DDDBF1E294A25ED8F42054C
:100DBC00418189C76D8D3335A000828001458280C9
:100DCC0093C5F5FFC205C1810EA98280EFF24FAD2C
:100DDC001629F577FD17F58FF621DA252111D58F18
:100DEC001EA95625FD779387379FF58FD6212A8428
:100DFC002EC0D58F9625D58FB625D58F5EA55E29AD
:100E0C00C207C18393F7F7CF5D8F5AA9480091357C
:100E1C00B74701409387078082456312F406C247A7
:100E2C005A24139517003E9542070E0541873E95AF
:100E3C008C41635807048605EFF0CFA99305400653
:100E4C002AC0EFF02FA98247931445009305400662
:100E5C003E85EFF0EFAA5E24C207C18763D5070277
:100E6C000E059305400613052503EFF0AFA61D896B
:100E7C00C98CC204C18006A461016FF00FA3B247F4
:100E8C0045B78A0555BF1205930540061305250382
:100E9C00EFF04FA43D89E9BF91C55E250967D98F55
:100EAC005EA582805A25F977FD17F98FD5BF93F58A
:100EBC00F51F4EA182800A216D8D3335A0008280F2
:100ECC00EFF20F9EB707002003A5C701B7157A00F4
:100EDC0093850520EFF00FA01375F50F2381A182E8
:100EEC0093175500898F8A073E950E052390A18292
:100EFC006FF0AF9BEFF2CF9A37F400E05C40AA851D
:100F0C00F99B5CC003D50182EFF0CF9A08C823246B
:100F1C0004001C4093E717001CC0B7F700E0D8434F
:100F2C00058B75DF9843799B98C36FF00F98EFF2A0
:100F3C002F972A84116511118545130505025D3B18
:100F4C00930700027C80371501408D473EC28A858D
:100F5C00E147130505403EC4EFF05FA822C63744B5
:100F6C000140B70708006C00130504803ECA02C894
:100F7C00231C0100A13D854513050480313F7101FF
:100F8C006FF0AF92EFF2CF917111AE840144635DBB
:100F9C00C402B7470140138707803A8593050004C4
:100FAC0032C0113FB747014013870780024675D501
:100FBC003387840083050700138507800504C20569
:100FCC00C181F5350246E1B7328511016FF0EF8D25
:100FDC00411106C62EC00DCD1841AA8705C3584134
:100FEC007D5511CB8546631BD7009847230007001E
:100FFC0023A207000545B2404101828098478246F2
:10100C0014A39847050798C7D8437D17D8C3DDB7F5
:10101C0005468A85853FF9BF011122CC2EC206CE2A
:10102C0026CA2A848147930500026345060292452D
:10103C00BE95838505008DE563D8C70263D4E702AE
:10104C00198E1305000293F526002AC089C501E705
:10105C00930500032EC0858A814495EAB2840DA0C5
:10106C008507F1B71D8EF1BF0146E1BF8245228590
:10107C003AC832C63EC4A93FA24732464247FD1485
:10108C00E34690FEB284635306008144058E63C729
:10109C00E702A68792463387974036978305070069
:1010AC0095EDB28463449004635306000146F2400C
:1010BC006244D2443305F600056182801D8FBA87E5
:1010CC0093050003228532C83EC63AC41137B24795
:1010DC0022474246FD17EDF7BA9465BF228532C60A
:1010EC003EC4FD35A247324685076DB78245228541
:1010FC0032C43EC2F13DFD142246924765B73971A8
:10110C0006DE22DC26DA3EC232833A8689ED92462E
:10111C009307000301476C08FC86FD3DF2506254B6
:10112C00D25421618280AA843684AE8791CA294721
:10113C0001446317E30063D50500B307B0400544D1
:10114C008646A309010213073103938666FC36C455
:10115C009A853E8532CA3AC81AC63EC0EFE05FFA9D
:10116C00A546824732434247524663D4A600A24664
:10117C003695130505039306F7FFA30FA7FE9A8573
:10118C003E8532CC3ACA1AC83EC636C0EFE09FF450
:10119C00B24742435247624663F9670401CC29CAFD
:1011AC009247898BB1C79305D002268532C40D3581
:1011BC0022467D169247918B95C3064793071006DE
:1011CC0032C4930500032685631EF702113593057F
:1011DC0080072685F53B2246090479161647924668
:1011EC0082452685153D229515BFAA8702478DB7E6
:1011FC0082469307D0020144A38FF6FE9307E7FFC4
:10120C003EC04DBFF13393058005E1B701458280A7
:10121C0001458280130181FD22D026CE06D22AC43C
:10122C00AE82328402C681448385020089EDA247D6
:10123C0081C781453E85693B925002542685F24414
:10124C00130181028280930750026388F5002245C6
:10125C0016C88504B53BC24239A883871200138790
:10126C001200639CB7002245930550023AC88D3397
:10127C0042478504BA82850245BFD5DB9306B0028E
:10128C006389D70463C8F600930630026386D704DB
:10129C00814705A09306D002638AD700930600030A
:1012AC00E398D7FE13872200894721A013872200D9
:1012BC008547830607001306B0026383C6046341A7
:1012CC00D60213063002638BC602BA820145A546CC
:1012DC0081A0138722006DBF138722009147D1BFD5
:1012EC001306D0026389C60013060003E39FC6FCF5
:1012FC0093E7270031A005078547C1BF93E7470057
:10130C000507E1B713162500329506053A958502B7
:10131C0003860200130706FD9375F70FE3F4B6FE80
:10132C001307E0029946631EE60085028146A54537
:10133C0003860200130606FD1377F60F63F5E5022C
:10134C0036C6038702001306A006630DC70A634363
:10135C00E6021306C0046307C70A13068006630C73
:10136C00C70881452DA813972600BA968606B29613
:10137C0085027DBF130640076306C7081306A00746
:10138C006302C7081306C0068145631AC7000386AB
:10139C0012008D456314E600850291458502038693
:1013AC000200930300061307100663C4C30013075F
:1013BC0010049303700663C4C3069303500663536F
:1013CC0076189303700463C1C30493055004635BE4
:1013DC00B61613073004E310E6EA184093034400F2
:1013EC0016CA230CE1001EC8A30C01000147BE86DF
:1013FC002A862C0849A8038612008145E311E6FAD7
:10140C00890271BF8502B1BF93063006E307D6FC93
:10141C0063CEC606930680056303D602A9BD930668
:10142C0030076304D60463CBC6029306F00663024E
:10143C00D60E9306000793E74700E31ED6E29146CB
:10144C00639FD50A930384000C40504016CA3AC2DD
:10145C003EC01EC8AA870147C146B9A093065007D3
:10146C006308D6069306800745BF1840B7160000E0
:10147C00930344009385066811C3BA85324716CA94
:10148C001EC8BE862A862245413E0DA09146639415
:10149C00D502930384000C40504016CA3AC23EC099
:1014AC001EC8AA870547A94622458D33C243AA9474
:1014BC001E84D242C9B3B2460C4016C836C23AC0DA
:1014CC0011042A878546294622451539AA9461B309
:1014DC009146639DD500930384000C40504016CA7E
:1014EC003AC23EC01EC8AA87014775BFB2460C401F
:1014FC0016C836C23AC011042A878146E9B7B246EB
:10150C0016C80C40414636C23AC011042A8781469F
:10151C0065BF9146639ED500930384000C405040F8
:10152C0016CA3AC23EC01EC8AA870147A146ADBF23
:10153C00B2460C4016C836C23AC011042A878146FE
:10154C00214659B70C401306840040403AC22A8702
:10155C00224532C83EC02286B687A94616CA4D39E6
:10156C00AA944244B9B71301C1FD2EC832CAAA8548
:10157C001008014506C636CC3ACE3ED032C0593999
:10158C00B240130141028280411122C426C206C618
:10159C001C21AA840144DC8183073100050499EFE6
:1015AC00A9479305310005460145DC81EFF09F9D6D
:1015BC002285B24022449244410182800546930523
:1015CC0031000145EFF01F9CB38784009C23DC8124
:1015DC00E1B7000054656D70657261747572653A9F
:1015EC002025642E256420430D0A0000507265737B
:1015FC00737572653A20256C642050610D0A0000E9
:10160C0054494D322057616B652D757020457665B8
:10161C006E74210D0000000053797374656D436C7A
:10162C006B3A2025640D0A0054494D3220536C65E9
:10163C006570204D6F646520616E6420424D5031A1
:10164C0038302053656E736F7220546573740D00BF
:10165C00456E746572696E6720536C656570204DBC
:10166C006F64652E2E2E0D00576F6B656E20757096
:0C167C00210D0000286E756C6C29000028
:10168800010203040506070801020304050607080A
:10169800006CDC020204060804080C10081018206C
:1016A800102030402040608001020304050607082E
:0C16B80001020304050607080000000002
:00000001FF
